:020000040800F2
:100000004807002055010008DD140008D912000837
:1000100000000000000000000000000000000000E0
:10002000000000000000000000000000E1140008D3
:100030000000000000000000DF140008E3140008C6
:100040006701000800000000670100086701000860
:1000500067010008670100086701000893040008B1
:100060000000000067010008670100086701000840
:10007000670100084D150008670100080000000036
:100080005D15000800000000000000006701000886
:100090000000000067010008670100086701000810
:1000A0000000000067010008000000006701000870
:1000B00000F002F800F03EF80CA030C80838241810
:1000C0002D18A246671EAB4654465D46AC4201D190
:1000D00000F030F87E460F3E0FCCB6460126334284
:1000E00000D0FB1AA246AB46334318473416000033
:1000F00054160000103A02D378C878C1FAD85207D3
:1001000001D330C830C101D504680C6070470000CD
:100110000023002400250026103A01D378C1FBD823
:10012000520700D330C100D50B6070471FB51FBD0B
:1001300010B510BD00F07BF91146FFF7F7FF01F095
:10014000D1FA00F093F903B4FFF7F2FF03BC00F01B
:1001500099F900000748804707480047FEE7FEE797
:10016000FEE7FEE7FEE7FEE704480549054A064BC1
:100170007047000049150008B10000084801002040
:10018000480700204803002048030020FEB505462C
:1001900010460C46184373D0AE468C460020AD1A6C
:1001A00001469C4167D36646002701243D46B61AA6
:1001B0009D4102D313463A462124654676462F04D4
:1001C000360C3E432D0CB61A9D4104D3150C1B046E
:1001D0002B4312041034654676462F06360A3E43FA
:1001E0002D0AB61A9D4104D3150E1B022B43120291
:1001F0000834654676462F0736093E432D09B61A60
:100200009D4104D3150F1B012B431201241D65468C
:100210007646AF07B6083E43AD08B61A9D4104D3F3
:10022000950F9B002B439200A41C65467646EF0772
:1002300076083E436D08B61A9D411AD392185B4169
:10024000641C16E00018764665464941B71A9D4180
:100250000191009009D36046B11A98418E468446B8
:10026000009801990025401C6941DD0752082A4386
:100270005B08641EE6D57246634603B0F0BDFFE737
:1002800000200146C046C0462A462346F5E701E065
:1002900004C0091F0429FBD28B0701D50280801CF2
:1002A000C90700D00270704700290BD0C30702D0E5
:1002B0000270401C491E022904D3830702D5028024
:1002C000801C891EE3E70022EEE70022DFE7002220
:1002D00003098B422CD3030A8B4211D300239C4683
:1002E0004EE003460B433CD4002243088B4231D3FB
:1002F00003098B421CD3030A8B4201D394463FE08F
:10030000C3098B4201D3CB01C01A524183098B42EE
:1003100001D38B01C01A524143098B4201D34B01D7
:10032000C01A524103098B4201D30B01C01A52413A
:10033000C3088B4201D3CB00C01A524183088B42C1
:1003400001D38B00C01A524143088B4201D34B00AA
:10035000C01A5241411A00D201465241104670471C
:100360005DE0CA0F00D04942031000D34042534021
:1003700000229C4603098B422DD3030A8B4212D3E1
:10038000FC22890112BA030A8B420CD38901921113
:100390008B4208D3890192118B4204D389013AD050
:1003A000921100E08909C3098B4201D3CB01C01A25
:1003B000524183098B4201D38B01C01A5241430938
:1003C0008B4201D34B01C01A524103098B4201D326
:1003D0000B01C01A5241C3088B4201D3CB00C01A93
:1003E000524183088B4201D38B00C01A5241D9D2AB
:1003F00043088B4201D34B00C01A5241411A00D22C
:100400000146634652415B10104601D34042002B27
:1004100000D54942704763465B1000D3404201B5A6
:100420000020C046C04602BD704770477047754601
:1004300000F024F8AE46050069465346C008C000E7
:10044000854618B020B5FFF78FFE60BC002749082D
:10045000B6460026C0C5C0C5C0C5C0C5C0C5C0C55C
:10046000C0C5C0C5403D49008D46704710B5044623
:10047000C046C0462046FFF766FE10BD00487047E4
:10048000E400002001491820ABBEFEE72600020070
:10049000704710B5102000F073F910BDF8B50025B5
:1004A000044620340095227D012A39D0012222758C
:1004B00003689E68760767D4384F4E68BE424DD0B9
:1004C0009E6A0F78BA4016439E620123C26A1B07D8
:1004D0009A421FD0012A1DD0022A1BD0032A19D00C
:1004E000042A17D0052A15D0062A13D0072A11D0BE
:1004F00002688B6856697607760FB3420AD0536953
:10050000DB08DB005361006842690B7A5B075B0F15
:100510001A4342610A68102A04D0112A02D038E036
:100520000220F8BD1E488368102A07D001229205D8
:10053000134383600868102803D02AE00122D20503
:10054000F6E7194817490068FFF7C1FE0A2148433A
:1005500000E0401E00900028FBD11AE0986A0E7857
:10056000B240904398620968102901D0112910D136
:100570000B488268102904D0012189058A438260D2
:1005800007E00121C905F9E7816B2022114381634E
:100590000125002020752846F8BD0000011000004C
:1005A0000027014040420F0010000020F8B500264F
:1005B0000446002805D0A06B25462035002802D02F
:1005C00007E00120F8BD0020E0632875204600F018
:1005D000A9F8A06B1022C006002870DB2068816893
:1005E00049076CD4A16B1301994302231943A163FA
:1005F00081688907890F012905D10168C9070FD1D1
:10060000C16809040CD4C16818239943A36819432D
:10061000C160206801696368890089081943016124
:100620002068C1683D4B1940C160207E617E800317
:10063000C9030843A17E4B031843A36A012B02D0D0
:1006400001231B0300E000231843E36818432369D8
:10065000022B09D0002318432B79E57E5B00184359
:100660000123012D02D00AE00423F4E7002927D05A
:10067000A16B20252943A163E16B1943E163E16983
:100680000D46FF3DC23D02D0256A2943084321683B
:10069000CD680543CD600125E16A2D07A94213D03D
:1006A000012911D002290FD003290DD004290BD024
:1006B000052909D0062907D0072905D010E028E030
:1006C000012109040843DAE721684D69ED08ED00CE
:1006D0004D6121684D69A78D7F077F0F3D434D61B7
:1006E0002168C9680E4D2940814207D10020E0638E
:1006F000A06B80088000401CA06308E0A06B022172
:1007000088431043A063E06B1843E0630126304642
:10071000F8BDA06B1043A063F8E700001902FEFFCC
:10072000E7FF3F8310B586B0044614216846FFF703
:10073000CCFD10492068884219D10F4882694115C3
:100740000A43826182690A400592426909020A43AA
:10075000426140690840059070200090032001909C
:100760000020029009206946C00600F015F806B086
:1007700010BD00000024014000100240704700003E
:1007800010B504494A69024202D04861FFF7F6FFFA
:1007900010BD000000040140F8B50023032401252A
:1007A000BAE02E469E40B44632407CD00E79B60761
:1007B000B60F012E01D0022E17D186682746B64605
:1007C0005E00B74000967646BE43B646CF68009EB0
:1007D000B74076463743876046686746BE430F7921
:1007E000FF06FF0F9F40374347600E79F643B60779
:1007F0000ED0C6682746B4465E00B646B740664689
:10080000BE43B4468F687646B74066463743C760F6
:100810000E79B607B60F022E14D1DE08B6003618D0
:100820000096366A5F07B446FE0E0F27B646B740FD
:100830006646BE43B4460F697646B74066463743C0
:10084000009E376206682746B4465E00B646B7404B
:100850006646BE430F79B446BF07BF0F7646B74022
:100860006646374307604E68B603B60F53D02D4F28
:10087000BE692E43BE61BE699F08F607F60F2A4E79
:10088000BF00BE190096B6680F27B4469E07360F04
:10089000B646B7406646BE430927FF06B446B8428F
:1008A00002D1002710E036E0204FB84201D10127E5
:1008B0000AE01F4FB84201D1022705E01D4FB842A0
:1008C00001D1032700E005277646B7406646374347
:1008D000009EB760184E36684F689643FF0300D5F8
:1008E0001643154F3E607E684F689643BF0300D5A0
:1008F0001643114F7E60BE684F689643FF0200D5D5
:1009000016430D4FBE60FE684F689643BF0200D588
:100910001643094AD6605B1C0A681646DE4000D0C2
:100920003FE7F8BD0010024000000140000400480D
:1009300000080048000C004800040140002A01D0D3
:10094000816170478162704701488068704700008C
:10095000040000200248816802788918816070478D
:100960000400002010B50648016810221143016000
:10097000032000F007F800F027F8002010BD000069
:100980000020024070B504460D4D7D202978C0003E
:10099000FFF79DFC01460B480068FFF798FC00F04C
:1009A000BFFA002809D1042C07D200222146401E9C
:1009B00000F02AF800206C6070BD012070BD0000BE
:1009C000040000201000002008B5084881690122B9
:1009D00011438161816911400091C26901040A4398
:1009E000C261C0690840009008BD000000100240CC
:1009F000002805DBC106C90E0120884001490860B6
:100A00007047000000E100E010B500F049FE10BDA5
:100A1000F8B50F46060059D03A4D2868C007C00FF8
:100A2000B84209D228684008400038432860286846
:100A3000C007C00FB84249D13068334C81070CD58C
:100A4000400704D5606807210902084360606068B8
:100A5000F0218843B168084360603078C00726D031
:100A6000706801280ED0216802280ED0890700295D
:100A70002CDA61688908890001436160FFF764FF2F
:100A800000900DE021688903F1E78901EFE7FFF7A6
:100A90005BFF0099411A1D48814201D90320F8BD2E
:100AA00060680C210840716889008842EFD128688D
:100AB000C007C00FB8420BD928684008400038432F
:100AC00028602868C007C00FB84201D00120F8BDD7
:100AD0003078400706D56068072109028843F1682D
:100AE0000843606000F018F86168094A0906090FB8
:100AF000515CC840074908600320FFF743FF00200E
:100B0000F8BD0000002002400010024088130000E1
:100B1000101700081000002010B514A30FCB88B0E8
:100B20006C460FC415A30FCB0FC4184A51680C2094
:100B30000B4603401648042B16D0082B14D18B0209
:100B40001B0F6C46E45CD26A04AB1207120F9A5C6E
:100B5000C90305D500231946FFF718FB214601E01C
:100B600020460C4900F083FD08B010BD02030405C7
:100B7000060708090A0B0C0D0E0F101001020304E2
:100B800005060708090A0B0C0D0E0F100010024095
:100B900000127A0000093D00FEB5040070D02078F4
:100BA000DC4DC0074AD068680007800F012807D0D5
:100BB00068680007800F022809D16868C00306D55D
:100BC000286880033AD560680028E7D036E061687D
:100BD000012914D001208004002901D0052914D056
:100BE0002A68012109048A432A602968814329600F
:100BF0006068002816D0FFF7A7FE06460EE02868BA
:100C00000121090408432860F2E7296801432960AB
:100C1000F5E7FFF799FE801B64286ED828688003EB
:100C2000F7D50BE0FFF790FE064604E0FFF78CFED9
:100C3000801B6428F1D828688003F7D42078012627
:100C4000800700283CDA68680007800F07D06868D2
:100C50000007800F022809D16868C00306D42868FD
:100C6000800716D5E06801280AD112E0E068002864
:100C7000286816D030432860FFF766FE074605E077
:100C800043E1FFF761FEC01B0228C6D82868800731
:100C9000F7D52868F82188432169C90008432860EE
:100CA0000EE0400840002860FFF74EFE074604E0D3
:100CB000FFF74AFEC01B0228AFD828688007F7D488
:100CC0002078000722D5E0690028686A0ED03043FA
:100CD0006862FFF739FE074604E0FFF735FEC01BE8
:100CE00002289AD8686A8007F7D50FE040084000CC
:100CF0006862FFF729FE074605E09DE0FFF724FE46
:100D0000C01B022889D8686A8007F7D42078042796
:100D10004007002860DA00200190E869C00008D48C
:100D2000E969B8060143E961E969014001200091E0
:100D3000019079480168C90511D4016882151143F1
:100D40000160FFF701FE009005E0FFF7FDFD00994F
:100D5000401A642870D870480068C005F5D5A068AE
:100D600001280AD0002801D0052810D0286A4008A0
:100D700040002862286AB84301E0286A30432862AC
:100D8000A068002812D0FFF7DFFD00900AE0286A73
:100D900038432862F1E7FFF7D7FD0099411A5F4811
:100DA000814249D8286A8007F5D50DE0FFF7CCFDD0
:100DB000009006E0FFF7C8FD0099411A57488142AC
:100DC0003AD8286A8007F5D40198002804D0E96948
:100DD000012000078143E9612078C00635D56069AC
:100DE00001280CD0401D686B23D038436863686BC2
:100DF000400840006863FFF7A7FD064622E0686BE5
:100E000038436863686B30436863FFF79DFD0646AF
:100E100004E0FFF799FD801B02285BD8686B800710
:100E2000F7D5686BF8218843A169C9000843686356
:100E30000BE0B8436863F4E74CE0FFF785FD801BE7
:100E4000022847D8686B8007F7D4206A00285ED054
:100E500069680907890F022942D00126360602284F
:100E6000286805D0B0432860FFF76EFD044633E0E4
:100E7000B0432860FFF768FD074604E0FFF764FD14
:100E8000C01B022826D828688001F7D4E86AE16AE6
:100E9000000900010843E862616AA06A08436968C2
:100EA0003D2212049143084368602868304328605B
:100EB000FFF74AFD044604E0FFF746FD001B022849
:100EC00008D828688001F7D521E0FFF73DFD001B19
:100ED000022801D90320FEBD28688001F5D416E060
:100EE0000128F8D06868E96A01221204636A0240A6
:100EF0009A420AD10907E26A090F914205D10F21EE
:100F000089040840A16A884201D00120FEBD00206A
:100F1000FEBD000000100240007000408813000079
:100F2000094910B5401E884201D9012010BD074C67
:100F300060610321081F00F0B3FB0020A0610720BF
:100F40002061002010BD0000FFFFFF0000E000E076
:100F500070477047F0B502462032137F012B1BD03B
:100F6000012616770223537705686B68AC687027F3
:100F7000BB430F681F436F600068084B984202D064
:100F8000074B984204D1802349689C4321438160E8
:100F9000567700201077F0BD0220F0BD002C0140F4
:100FA0000004004070B5040005D025462035687F58
:100FB000002802D006E0012070BD002028772046DE
:100FC00000F014F802206877211D206800F0DCFA98
:100FD00001204034A071A877E87720706070A0707D
:100FE000E070207160716877002070BD08B5134A09
:100FF0000168134891420DD18269C1140A4382618C
:10100000806900220840009011460D20FFF7FCFC8B
:101010000D200FE00B4A91420ED1C26902210A4312
:10102000C261C06900220840009011461020FFF7FD
:10103000EBFC1020FFF7DCFC08BD0000002C014099
:101040000010024000040040014620314A7F012A7E
:1010500001D00120704702224A770268D36801213B
:101060000B43D3600068084A904202D0074A90427E
:1010700004D182685207520F062A02D002680A433E
:101080000260002070470000002C01400004004076
:10109000F8B5054604462035287F0026012817D0DC
:1010A0000120287702206877226890687727FF233D
:1010B000B8431B02984390600868502838D00EDC73
:1010C00020284FD006DC00284CD010281ED149E043
:1010D0000220F8BD302845D0402817D13AE06028DA
:1010E0002ED0702819D001221203801A0FD09042FE
:1010F0000CD1CB684A688968206800F081FA2068C2
:101100008168012292031143816000E001260120E1
:101110006877002028773046F8BDCB684A68896830
:10112000206800F06DFA2168886838438860EEE72F
:10113000CA684968206800F076FA5021206806E005
:10114000CA684968206800F07FFA6021206800F0D2
:1011500062FADCE7CA684968206800F064FA402156
:101160002068F4E7226801461046F0E7704770B542
:101170000446006801690025C9438907002915DB79
:10118000C168C943890711D4E91E01610120207794
:10119000206880698007204602D0FFF7E7FF04E05F
:1011A00000F096F8204600F094F825772068016951
:1011B000C943490717D4C168C943490713D4042157
:1011C000C943016102202077206880698005800F73
:1011D000204602D0FFF7CAFF04E000F079F820466D
:1011E00000F077F8257720680169C943090716D40C
:1011F000C168C943090712D40821C9430161042009
:1012000020772068C0698007204602D0FFF7AEFF34
:1012100004E000F05DF8204600F05BF825772068D8
:101220000169C943C90617D4C168C943C90613D4A3
:101230001021C9430161082020772068C06980051A
:10124000800F204602D0FFF791FF04E000F040F845
:10125000204600F03EF8257720680169C943C90798
:1012600008D1C168C943C90704D1891E016120465C
:1012700000F030F820680169C943090609D4C16843
:10128000C943090605D48021C94301612046FFF7FF
:101290005FFE20680169C943490609D4C168C94392
:1012A000490605D44021C9430161204600F013F8E6
:1012B00020680169C943890609D4C168C943890600
:1012C00005D42021C94301612046FFF742FE70BDCD
:1012D0007047704770477047FEE700003EB5002139
:1012E00021480091019102911E4A4160026003462B
:1012F0008160012204240C3316C301764176817685
:10130000FF23C176C233C3610346016220331971E2
:101310008262FFF74BF9002801D072B6FEE7012088
:101320000003019000040290009469460E48FFF704
:10133000B5F8002801D072B6FEE705200090694696
:101340000948FFF7ABF8002801D072B6FEE7062087
:10135000009069460448FFF7A1F8002801D072B652
:10136000FEE73EBD002401401400002030B587B0E8
:1013700014216846FEF7A9FF1E484269012189052C
:101380000A43426142690A400592426949110A438F
:10139000426142690A400592426949000A4342613A
:1013A00040690324084009252402ED060590002227
:1013B00021462846FFF7C2FA00940120002401903C
:1013C0000294694628460394FFF7E6F9102000903E
:1013D000112000040190694602940748FFF7DCF9E8
:1013E000002211460720FFF70FFB0720FFF700FB45
:1013F00007B030BD001002400004004810B586B0B0
:10140000002400941848019402940394049415490C
:10141000059401600C2184604160FF2104619031DA
:101420004461C16080218161FFF7BCFD002801D0CB
:1014300072B6FEE701200003009069460A48FFF7F4
:1014400027FE002801D072B6FEE7049404A90648DE
:101450000594FFF77FFD002801D072B6FEE706B0C5
:1014600010BD0000002C01405400002010B586B0D3
:10147000002400941748019402940394049414499E
:101480000594016010218460416013490461C160CA
:1014900080218161FFF786FD002801D072B6FEE74A
:1014A00001200003009069460A48FFF7F1FD00287B
:1014B00001D072B6FEE7049404A906480594FFF72C
:1014C00049FD002801D072B6FEE706B010BD00004D
:1014D000000400409C0000202F750000FEE77047CC
:1014E000704710B5FFF736FA10BD30B591B0302116
:1014F0006846FEF7EAFE002411200F9400900120B8
:1015000001900590102006900E94000309900001B0
:101510000D9402250A900C9408950B946846FFF7E9
:101520003BFB002801D072B6FEE707200C900E941A
:1015300001210D950F940CA8FFF76AFA002801D03D
:1015400072B6FEE711B030BD7047000010B502481A
:10155000FFF70DFE10BD00005400002010B5084834
:10156000FFF705FE074901220868101A0860C2B299
:10157000012109204902C006FFF7E0F910BD000073
:101580009C0000200000002070B50268174B184E28
:10159000984201D0B04203D17024A2434C68224348
:1015A000144C154D984208D0B04206D0134EB042AC
:1015B00003D0A04201D0A84204D103263602B24390
:1015C000CE6832438026B2434E69324302608A6855
:1015D000C2620A688262984203D0A04201D0A84247
:1015E00001D1096901630121416170BD002C0140F5
:1015F0000004004000440140004801400020004039
:1016000030B58468FF252D021B021343AC430B4306
:101610002343836030BD826870239A430A430721C5
:101620000A438260704730B5036A046A6408640044
:1016300004628469F025AC43120122430A24A343C7
:101640000B438261036230BD30B5036A1024A343AB
:1016500003628469036A0F252D031203AC432243FE
:10166000A024A343090119438261016230BDF8B58A
:10167000040C8BB2264682B25E430D0C1046370C2A
:101680005843360480190021794116466E43370CC1
:1016900036048019794126466E438919F8BD000049
:1016A0008307FF22DB0E9A408907090E9940002824
:1016B00008DB830809489B001B18186890430843FF
:1016C000186070470007000F0838830804489B0023
:1016D0001B18D86990430843D861704700E400E0C4
:1016E00000ED00E0FFF73EF9FFF7FFFEFFF73EFEDB
:1016F000FFF7F4FDFFF782FEFFF7B8FE0348FFF7A0
:10170000A3FC02484830FFF79FFCFEE7540000208E
:1017100000000000000000000102030406070809A1
:10172000401700080000002014000000F40000082A
:1017300054170008140000203407000010010008AE
:101740000000000001000000040000000000000094
:0417500000127A0009
:04000005080000B13E
:00000001FF
