:020000040800F2
:100000007007002055010008651A0008351800081F
:1000100000000000000000000000000000000000E0
:10002000000000000000000000000000691A000845
:100030000000000000000000671A0008911A000884
:100040006701000800000000670100086701000860
:1000500067010008670100086701000867010008E0
:100060000000000067010008670100086701000840
:100070006701000867010008670100080000000030
:10008000F91A0008000000000000000067010008E5
:100090000000000067010008670100086701000810
:1000A0000000000067010008000000006701000870
:1000B00000F002F800F03EF80CA030C80838241810
:1000C0002D18A246671EAB4654465D46AC4201D190
:1000D00000F030F87E460F3E0FCCB6460126334284
:1000E00000D0FB1AA246AB4633431847CC1E000093
:1000F000EC1E0000103A02D378C878C1FAD8520733
:1001000001D330C830C101D504680C6070470000CD
:100110000023002400250026103A01D378C1FBD823
:10012000520700D330C100D50B6070471FB51FBD0B
:1001300010B510BD00F0AAF91146FFF7F7FF01F066
:10014000F3FE00F0C2F903B4FFF7F2FF03BC00F0C6
:10015000C9F900000748804707480047FEE7FEE767
:10016000FEE7FEE7FEE7FEE704480549054A064BC1
:1001700070470000F71A0008B10000087001002065
:10018000700700207003002070030020FEB50546B4
:1001900010460C46184373D0AE468C460020AD1A6C
:1001A00001469C4167D36646002701243D46B61AA6
:1001B0009D4102D313463A462124654676462F04D4
:1001C000360C3E432D0CB61A9D4104D3150C1B046E
:1001D0002B4312041034654676462F06360A3E43FA
:1001E0002D0AB61A9D4104D3150E1B022B43120291
:1001F0000834654676462F0736093E432D09B61A60
:100200009D4104D3150F1B012B431201241D65468C
:100210007646AF07B6083E43AD08B61A9D4104D3F3
:10022000950F9B002B439200A41C65467646EF0772
:1002300076083E436D08B61A9D411AD392185B4169
:10024000641C16E00018764665464941B71A9D4180
:100250000191009009D36046B11A98418E468446B8
:10026000009801990025401C6941DD0752082A4386
:100270005B08641EE6D57246634603B0F0BDFFE737
:1002800000200146C046C0462A462346F5E701E065
:1002900004C0091F0429FBD28B0701D50280801CF2
:1002A000C90700D00270704700290BD0C30702D0E5
:1002B0000270401C491E022904D3830702D5028024
:1002C000801C891EE3E70022EEE70022DFE7002220
:1002D00003098B422CD3030A8B4211D300239C4683
:1002E0004EE003460B433CD4002243088B4231D3FB
:1002F00003098B421CD3030A8B4201D394463FE08F
:10030000C3098B4201D3CB01C01A524183098B42EE
:1003100001D38B01C01A524143098B4201D34B01D7
:10032000C01A524103098B4201D30B01C01A52413A
:10033000C3088B4201D3CB00C01A524183088B42C1
:1003400001D38B00C01A524143088B4201D34B00AA
:10035000C01A5241411A00D201465241104670471C
:100360005DE0CA0F00D04942031000D34042534021
:1003700000229C4603098B422DD3030A8B4212D3E1
:10038000FC22890112BA030A8B420CD38901921113
:100390008B4208D3890192118B4204D389013AD050
:1003A000921100E08909C3098B4201D3CB01C01A25
:1003B000524183098B4201D38B01C01A5241430938
:1003C0008B4201D34B01C01A524103098B4201D326
:1003D0000B01C01A5241C3088B4201D3CB00C01A93
:1003E000524183088B4201D38B00C01A5241D9D2AB
:1003F00043088B4201D34B00C01A5241411A00D22C
:100400000146634652415B10104601D34042002B27
:1004100000D54942704763465B1000D3404201B5A6
:100420000020C046C04602BD7047704770471F227B
:10043000030C02D10F2200041CD0030E01D10002D4
:10044000083A030F01D10001121F830F01D1800070
:10045000921E002801DB4000521ED20551180212E4
:1004600051181922904004D3491C002801D1490891
:10047000490008467047C10FC90700D04042012219
:1004800092071143D3E701218907D0E7754600F0B1
:1004900025F8AE46050069465346C008C0008546AB
:1004A00018B020B5FFF760FE60BC00274908B646CB
:1004B0000026C0C5C0C5C0C5C0C5C0C5C0C5C0C573
:1004C000C0C5403D49008D46704710B50446C04642
:1004D000C0462046FFF737FE10BD000000487047B9
:1004E0000C01002001491820ABBEFEE726000200E7
:1004F00070470000F8B50025044620340095227DA1
:10050000012A39D00122227503689E68760767D4D4
:10051000384F4E68BE424DD09E6A0F78BA4016439F
:100520009E620123C26A1B079A421FD0012A1DD076
:10053000022A1BD0032A19D0042A17D0052A15D065
:10054000062A13D0072A11D002688B6856697607ED
:10055000760FB3420AD05369DB08DB0053610068B1
:1005600042690B7A5B075B0F1A4342610A68102AE3
:1005700004D0112A02D038E00220F8BD1E4883685A
:10058000102A07D0012292051343836008681028BF
:1005900003D02AE00122D205F6E71948174900687E
:1005A000FFF795FE0A21484300E0401E0090002816
:1005B000FBD11AE0986A0E78B240904398620968BD
:1005C000102901D0112910D10B488268102904D0BC
:1005D000012189058A43826007E00121C905F9E705
:1005E000816B20221143816301250020207528465C
:1005F000F8BD0000011000000027014040420F003C
:1006000038000020F8B500260446002805D0A06B6D
:1006100025462035002802D007E00120F8BD002043
:10062000E0632875204600F0A9F8A06B1022C006F0
:10063000002870DB2068816849076CD4A16B130126
:10064000994302231943A16381688907890F01290E
:1006500005D10168C9070FD1C16809040CD4C1686C
:1006600018239943A3681943C1602068016963682E
:1006700089008908194301612068C1683D4B194010
:10068000C160207E617E8003C9030843A17E4B03C5
:100690001843A36A012B02D001231B0300E00023AF
:1006A0001843E36818432369022B09D00023184339
:1006B0002B79E57E5B0018430123012D02D00AE06F
:1006C0000423F4E7002927D0A16B20252943A16347
:1006D000E16B1943E163E1690D46FF3DC23D02D084
:1006E000256A294308432168CD680543CD6001256B
:1006F000E16A2D07A94213D0012911D002290FD098
:1007000003290DD004290BD0052909D0062907D0CB
:10071000072905D010E028E0012109040843DAE7A1
:1007200021684D69ED08ED004D6121684D69A78D87
:100730007F077F0F3D434D612168C9680E4D2940F9
:10074000814207D10020E063A06B80088000401C3C
:10075000A06308E0A06B022188431043A063E06B14
:100760001843E06301263046F8BDA06B1043A06338
:10077000F8E700001902FEFFE7FF3F8310B586B0DF
:10078000044614216846FFF7A0FD104920688842FE
:1007900019D10F48826941150A43826182690A4072
:1007A0000592426909020A43426140690840059086
:1007B00070200090032001900020029009206946DB
:1007C000C00600F019F806B010BD0000002401407A
:1007D0000010024070B5044600F0E0F80546601CC9
:1007E00002D004480078241800F0D8F8401BA0423A
:1007F000FAD370BD2C000020F8B500230324012596
:10080000BAE02E469E40B44632407CD00E79B60700
:10081000B60F012E01D0022E17D186682746B646A4
:100820005E00B74000967646BE43B646CF68009E4F
:10083000B74076463743876046686746BE430F79C0
:10084000FF06FF0F9F40374347600E79F643B60718
:100850000ED0C6682746B4465E00B646B740664628
:10086000BE43B4468F687646B74066463743C76096
:100870000E79B607B60F022E14D1DE08B600361870
:100880000096366A5F07B446FE0E0F27B646B7409D
:100890006646BE43B4460F697646B7406646374360
:1008A000009E376206682746B4465E00B646B740EB
:1008B0006646BE430F79B446BF07BF0F7646B740C2
:1008C0006646374307604E68B603B60F53D02D4FC8
:1008D000BE692E43BE61BE699F08F607F60F2A4E19
:1008E000BF00BE190096B6680F27B4469E07360FA4
:1008F000B646B7406646BE430927FF06B446B8422F
:1009000002D1002710E036E0204FB84201D1012784
:100910000AE01F4FB84201D1022705E01D4FB8423F
:1009200001D1032700E005277646B74066463743E6
:10093000009EB760184E36684F689643FF0300D597
:100940001643154F3E607E684F689643BF0300D53F
:100950001643114F7E60BE684F689643FF0200D574
:1009600016430D4FBE60FE684F689643BF0200D528
:100970001643094AD6605B1C0A681646DE4000D062
:100980003FE7F8BD001002400000014000040048AD
:1009900000080048000C004800040140014880683D
:1009A000704700002C0000200248816802788918F6
:1009B000816070472C00002010B5064801681022A5
:1009C00011430160032000F007F800F027F8002031
:1009D00010BD00000020024070B504460D4D7D2082
:1009E0002978C000FFF773FC01460B480068FFF749
:1009F0006EFC00F0BFFA002809D1042C07D20022B7
:100A00002146401E00F02AF800206C6070BD0120D5
:100A100070BD00002C0000203800002008B50848F8
:100A20008169012211438161816911400091C2698C
:100A300001040A43C261C0690840009008BD00007B
:100A400000100240002805DBC106C90E01208840C5
:100A5000014908607047000000E100E010B501F0B6
:100A600041FA10BDF8B50F46060059D03A4D286836
:100A7000C007C00FB84209D2286840084000384378
:100A800028602868C007C00FB84249D13068334C8D
:100A900081070CD5400704D5606807210902084387
:100AA00060606068F0218843B16808436060307816
:100AB000C00726D0706801280ED0216802280ED009
:100AC000890700292CDA616889088900014361607F
:100AD000FFF764FF00900DE021688903F1E78901C9
:100AE000EFE7FFF75BFF0099411A1D48814201D9EA
:100AF0000320F8BD60680C210840716889008842B5
:100B0000EFD12868C007C00FB8420BD92868400849
:100B10004000384328602868C007C00FB84201D0A1
:100B20000120F8BD3078400706D56068072109022A
:100B30008843F1680843606000F018F86168094A6A
:100B40000906090F515CC840074908600320FFF7F8
:100B500043FF0020F8BD00000020024000100240CA
:100B600088130000A81F00083800002010B514A347
:100B70000FCB88B06C460FC415A30FCB0FC4184A17
:100B800051680C200B4603401648042B16D0082B46
:100B900014D18B021B0F6C46E45CD26A04AB1207C3
:100BA000120F9A5CC90305D500231946FFF7EEFA28
:100BB000214601E020460C4901F07BF908B010BD48
:100BC00002030405060708090A0B0C0D0E0F10108E
:100BD0000102030405060708090A0B0C0D0E0F108D
:100BE0000010024000127A0000093D00FEB504002A
:100BF00070D02078DC4DC0074AD068680007800FAD
:100C0000012807D068680007800F022809D16868AA
:100C1000C00306D5286880033AD560680028E7D06D
:100C200036E06168012914D001208004002901D038
:100C3000052914D02A68012109048A432A602968F9
:100C4000814329606068002816D0FFF7A7FE06469A
:100C50000EE028680121090408432860F2E72968AA
:100C600001432960F5E7FFF799FE801B64286ED8E1
:100C700028688003F7D50BE0FFF790FE064604E0F6
:100C8000FFF78CFE801B6428F1D828688003F7D416
:100C900020780126800700283CDA68680007800F6A
:100CA00007D068680007800F022809D16868C00370
:100CB00006D42868800716D5E06801280AD112E01A
:100CC000E0680028286816D030432860FFF766FEE9
:100CD000074605E043E1FFF761FEC01B0228C6D8C6
:100CE00028688007F7D52868F82188432169C9005A
:100CF000084328600EE0400840002860FFF74EFEE1
:100D0000074604E0FFF74AFEC01B0228AFD8286858
:100D10008007F7D42078000722D5E0690028686AA8
:100D20000ED030436862FFF739FE074604E0FFF754
:100D300035FEC01B02289AD8686A8007F7D50FE0F5
:100D4000400840006862FFF729FE074605E09DE085
:100D5000FFF724FEC01B022889D8686A8007F7D4F1
:100D6000207804274007002860DA00200190E86915
:100D7000C00008D4E969B8060143E961E9690140A6
:100D800001200091019079480168C90511D40168DA
:100D9000821511430160FFF701FE009005E0FFF7A7
:100DA000FDFD0099401A642870D870480068C0059D
:100DB000F5D5A06801280AD0002801D0052810D058
:100DC000286A400840002862286AB84301E0286A7F
:100DD00030432862A068002812D0FFF7DFFD0090A2
:100DE0000AE0286A38432862F1E7FFF7D7FD009947
:100DF000411A5F48814249D8286A8007F5D50DE03D
:100E0000FFF7CCFD009006E0FFF7C8FD0099411AFE
:100E1000574881423AD8286A8007F5D401980028BB
:100E200004D0E969012000078143E9612078C00608
:100E300035D5606901280CD0401D686B23D038433C
:100E40006863686B400840006863FFF7A7FD0646CB
:100E500022E0686B38436863686B30436863FFF770
:100E60009DFD064604E0FFF799FD801B02285BD834
:100E7000686B8007F7D5686BF8218843A169C900C2
:100E8000084368630BE0B8436863F4E74CE0FFF79E
:100E900085FD801B022847D8686B8007F7D4206A3D
:100EA00000285ED069680907890F022942D001260F
:100EB00036060228286805D0B0432860FFF76EFD8B
:100EC000044633E0B0432860FFF768FD074604E0BE
:100ED000FFF764FDC01B022826D828688001F7D4DC
:100EE000E86AE16A000900010843E862616AA06AF1
:100EF000084369683D2212049143084368602868EA
:100F000030432860FFF74AFD044604E0FFF746FD42
:100F1000001B022808D828688001F7D521E0FFF7D8
:100F20003DFD001B022801D90320FEBD2868800179
:100F3000F5D416E00128F8D06868E96A01221204A5
:100F4000636A02409A420AD10907E26A090F914294
:100F500005D10F2189040840A16A884201D00120EF
:100F6000FEBD0020FEBD00000010024000700040E9
:100F700088130000094910B5401E884201D901209C
:100F800010BD074C60610321081F00F0ABFF00207B
:100F9000A06107202061002010BD0000FFFFFF00BE
:100FA00000E000E07047704730B5034620331A7FF9
:100FB000012A26D001221A770325CA682D02AA43E6
:100FC0008D6800242A430125AD02AA434D680068BC
:100FD0002A430125ED02AA430D682A4301252D036A
:100FE000AA430D692A4301256D03AA434D69C969C6
:100FF0002A430125AD03AA430A4342641C7700201B
:1010000030BD022030BD0000F0B502462032137F13
:10101000012B1BD0012616770223537705686B68D6
:10102000AC687027BB430F681F436F600068084BB4
:10103000984202D0074B984204D1802349689C43D0
:1010400021438160567700201077F0BD0220F0BD6B
:10105000002C01400004004070B5040005D0254676
:101060002035687F002802D006E0012070BD0020F6
:101070002877204600F014F802206877211D2068A8
:1010800000F078FD01204034A071A877E877207047
:101090006070A070E070207160716877002070BD92
:1010A00010B586B0044614216846FFF70EF91A4AB7
:1010B00021681A48914208D18269C1140A438261A9
:1010C00080690840059006B010BD154A9142FAD1DA
:1010D000C26902210A43C261C2690A40059243699A
:1010E0004A04134343614069019110400590102068
:1010F0000090002002900390012004906946094866
:10110000FFF77AFB002211461020FFF7A7FC102002
:10111000FFF798FCD7E70000002C014000100240C8
:101120000004004000040048014620314A7F012AA3
:1011300001D00120704702224A7700680849012245
:10114000884202D00749884204D181684907490F83
:10115000062902D001681143016000207047000099
:10116000002C014000040040014620314A7F012A42
:1011700001D00120704702224A770268D36801211A
:101180000B43D3600068084A904202D0074A90425D
:1011900004D182685207520F062A02D002680A431D
:1011A0000260002070470000002C01400004004055
:1011B000F8B5054604462035287F0026012817D0BB
:1011C0000120287702206877226890687727FF231C
:1011D000B8431B02984390600868502838D00EDC52
:1011E00020284FD006DC00284CD010281ED149E022
:1011F0000220F8BD302845D0402817D13AE06028B9
:101200002ED0702819D001221203801A0FD09042DC
:101210000CD1CB684A688968206800F0F4FC20682B
:101220008168012292031143816000E001260120C0
:101230006877002028773046F8BDCB684A6889680F
:10124000206800F0E0FC2168886838438860EEE799
:10125000CA684968206800F0CBFD5021206806E08C
:10126000CA684968206800F0F7FD6021206800F036
:10127000D5FCDCE7CA684968206800F0B9FD402168
:101280002068F4E7226801461046F0E77047F8B599
:1012900004460020264620360090307F0D46012867
:1012A0000ED001203077002A0CD0042A19D0082A49
:1012B0002AD00C2A4ED00090002030770098F8BD3C
:1012C0000220F8BDEB6806CD083D206800F0A2FDC5
:1012D000206882690C218A43826120688169AA683A
:1012E0000FE0EB6806CD083D206800F0C8FD2068DF
:1012F0008169032292029143816120688169AA6811
:10130000120211438161D7E788CD2879216884468C
:10131000086AFF22013290430862C8690A6A80089D
:1013200080003843F027B84367463F073F0E074326
:101330000520400282430A20034018021043CF6177
:1013400008622068C1690C229143C1612068C169AB
:101350002A682CE02B6820689E466F682B7B016A08
:10136000BC460122120391430162C169026A03274C
:101370003F02B94367463F020F430F2109038F43E2
:101380001907090C052339435B039A4373460A275F
:101390003B401B031343C16103622068C269032100
:1013A00089028A43C2612068C169AA681202114396
:1013B000C16181E770B5040005D025462035687FFE
:1013C000002802D006E0012070BD002028772046CA
:1013D00000F014F802206877211D206800F0CAFB95
:1013E00001204034A071A877E87720706070A07069
:1013F000E070207160716877002070BD7047000058
:1014000070B503460446002520334030002908D03B
:10141000042909D008290AD046784279012E0BD137
:1014200008E09E7F8278F9E7DE7FC278F6E70678EB
:101430000279F3E7012A01D0012070BD02220029C0
:1014400009D004290ED0082912D0427042710C290B
:101450002BD0012527E09A7782702068C368134358
:10146000C3600CE0DA77C2702068C268042304E02D
:10147000027002712068C26808231A43C260012208
:10148000206800F0B3FB0B4A20680121904202D093
:10149000094A904204D182685207520F062A02D0AC
:1014A00002680A430260284670BD2068C2681023A3
:1014B000E3E70000002C01400004004070B5044642
:1014C000006801690025C9438907002915DBC16847
:1014D000C943890711D4E91E0161012020772068E2
:1014E00080698007204602D0FFF7D0FE04E000F0BC
:1014F000C1F8204600F04CF9257720680169C943FE
:10150000490717D4C168C943490713D40421C94303
:10151000016102202077206880698005800F2046C5
:1015200002D0FFF7B3FE04E000F0A4F8204600F07C
:101530002FF9257720680169C943090716D4C168C6
:10154000C943090712D40821C94301610420207747
:101550002068C0698007204602D0FFF797FE04E0AC
:1015600000F088F8204600F013F92577206801691B
:10157000C943C90617D4C168C943C90613D4102189
:10158000C9430161082020772068C0698005800F69
:10159000204602D0FFF77AFE04E000F06BF8204608
:1015A00000F0F6F8257720680169C943C90708D11A
:1015B000C168C943C90704D1891E0161204600F0F2
:1015C00037F920680169C943090609D4C168C943CC
:1015D000090605D48021C94301612046FFF7E2FCDA
:1015E00020680169C943490609D4C168C94349064D
:1015F00005D44021C9430161204600F01AF9206852
:101600000169C943890609D4C168C943890605D45B
:101610002021C94301612046FFF7C5FC70BD0000D1
:1016200010B586B0044614216846FEF74EFE0F49F9
:101630002068884217D10E484269012149040A43B3
:10164000426140690840059003200002009002209A
:101650000021029101900121049003910920694623
:10166000C006FFF7C9F806B010BD0000002C01400D
:10167000001002407047F8B5064604462036307F19
:1016800000270D4601280ED001203077002A0CD00B
:10169000042A1BD0082A2FD00C2A3ED00127002074
:1016A00030773846F8BD0220F8BD206800F0BEFA59
:1016B00020688169082211438161206882690421C0
:1016C0008A438261206881692A6912E0206800F0FB
:1016D000E9FA206882690121C9020A43826120680F
:1016E00081690122920291438161206881692A699E
:1016F000120211438161D2E7206800F00DFB2068DF
:10170000C16908221143C1612068C26904218A436A
:10171000C2612068C1692A6912E0206800F038FBC4
:101720002068C1690122D2021143C1612068C269E7
:10173000012189028A43C2612068C1692A691202B3
:101740001143C161ABE770B5040005D025462035D3
:10175000687F002802D006E0012070BD00202877B5
:10176000204600F014F802206877211D206800F060
:1017700001FA01204034A071A877E87720706070EA
:10178000A070E070207160716877002070BD7047B4
:101790007047000010B504460222203000290AD00C
:1017A00004290DD02046403008290ED04378012B63
:1017B00010D0012010BD837F012BFAD182770AE07F
:1017C000C37F012BF5D1C27705E00378012BF0D15F
:1017D000027000E042700122206800F007FA104910
:1017E0002068884205D00F4A904202D00E4A9042AB
:1017F00004D1426C0123DB031A43426420680122B6
:10180000884202D00949884204D181684907490FBA
:10181000062902D0016811430160002010BD0000BC
:10182000002C0140004401400048014000040040F9
:1018300070477047FEE700003EB500212148009147
:10184000019102911E4A41600260034681600122BB
:1018500004240C3316C3017641768176FF23C176CA
:10186000C233C36103460162203319718262FEF7FD
:10187000C9FE002801D072B6FEE7012000030190E6
:1018800000040290009469460E48FEF733FE0028DB
:1018900001D072B6FEE70520009069460948FEF7C0
:1018A00029FE002801D072B6FEE7062000906946A6
:1018B0000448FEF71FFE002801D072B6FEE73EBDC9
:1018C000002401403C00002010B596B000240F9485
:1018D00010941194129413941C2168461494FEF7EA
:1018E000F4FC202107A8FEF7F0FC334831490160E1
:1018F0002F2184604160046130494461C1608021CE
:101900008161FFF7A9FB002801D072B6FEE7012034
:1019100000030F900FA92848FFF74AFC002801D0C8
:1019200072B6FEE72448FFF70EFF002801D072B61A
:10193000FEE7139413A920481494FFF765FB0028D1
:1019400001D072B6FEE760200594019400900294E5
:10195000039404940022694606941748FFF78BFE0F
:10196000002801D072B6FEE7042269461248FFF74C
:1019700082FE002801D072B6FEE7012007944003E2
:1019800009940C9008940A940B9407A90E940A48A1
:10199000FFF70AFB002801D072B6FEE70648FFF702
:1019A000C3FB04210448FFF7F5FE0348FFF738FEA8
:1019B00016B010BD002C01407C000020E7030000A1
:1019C00010B58AB0002404940594069407940894F2
:1019D000224809940094019402941F4903940160E1
:1019E0002F21846041601E490461C16080218161B2
:1019F000FFF732FB002801D072B6FEE7012000039A
:101A0000049004A91548FFF7D3FB002801D072B653
:101A1000FEE71248FFF7CEFC002801D072B6FEE7C1
:101A2000202008A911C10D480839FFF7EDFA002858
:101A300001D072B6FEE701200190082002900094C8
:101A40000022694603940548FFF721FC002801D0D5
:101A500072B6FEE70AB010BD00040040C4000020CA
:101A60004FC30000FEE77047704700007D2110B5AE
:101A7000C900884200D9084603498863FEF703FD80
:101A80000249886110BD0000002C014000000020C8
:101A900010B5FEF789FF10BD30B591B03021684612
:101AA000FEF713FC002411200F94009001200190F8
:101AB0000590102006900E940003099000010D94EB
:101AC00002250A900C9408950B946846FFF78EF84F
:101AD000002801D072B6FEE707200C900E94012179
:101AE0000D950F940CA8FEF7BDFF002801D072B62B
:101AF000FEE711B030BD704770B5184801680A693B
:101B00000025D243D207164C002A0DD1CA68D24311
:101B1000D20709D12288521C92B22280142A00D105
:101B200025800122D2430A6100680169C9438907FF
:101B300010D4C068C04380070CD4208809490A4EDD
:101B40004843716B41180948FEF7C1FB084908601A
:101B5000756225800148FFF7B1FC70BDC40000200C
:101B60002800002050C30000000400401CC80600EC
:101B70002400002070B50268174B184E984201D01F
:101B8000B04203D17024A2434C682243144C154D3B
:101B9000984208D0B04206D0134EB04203D0A042C3
:101BA00001D0A84204D103263602B243CE683243A4
:101BB0008026B2434E69324302608A68C2620A6874
:101BC0008262984203D0A04201D0A84201D10969A3
:101BD00001630121416170BD002C014000040040FF
:101BE00000440140004801400020004010B5CB06F1
:101BF000DB0E0121046A99408C430462016A9A4019
:101C00001143016210BD30B58468FF252D021B020F
:101C10001343AC430B432343836030BD826870237E
:101C20009A430A4307210A4382607047F0B5026A6B
:101C3000520852000262056A436882697024A24316
:101C400092080C6892001443022295438A68134E4E
:101C50002A43114DA84204D0B04202D0104FB842DE
:101C600006D10827BA43CF681743042297433A4660
:101C7000A84204D0B04202D0094DA84206D10325A3
:101C80002D02AB434D691D438B692B434360846137
:101C9000496841630262F0BD002C014000440140EC
:101CA0000048014070B5026A10239A430262046A38
:101CB0004368826973252D02AA430D682D021543DE
:101CC000202294438A6812012243104CA04208D17A
:101CD0001446CA688026B443120122434024A2431A
:101CE00005E00B4CA04202D00A4CA04208D10324CC
:101CF000A402A3434C69A4001C438B699B002343AB
:101D00004360856149688163026270BD002C0140B7
:101D1000004401400048014070B5026AFF230133CE
:101D20009A430262046A4368C2697025AA43920812
:101D30000D68920015430122520294438A681202F0
:101D40002243104CA04207D1C414A243CC68240201
:101D500022430615B24305E00B4CA04202D00B4CC7
:101D6000A04208D103242403A3434C6924011C434B
:101D70008B691B0123434360C5614968C1630262EB
:101D800070BD0000002C01400044014000480140AB
:101D900030B5026A01231B039A430262056A426856
:101DA000C36973242402A3430C6824021C43012347
:101DB0005B039D438B681B032B430A4DA84205D050
:101DC000094DA84202D0094DA84205D10125AD0315
:101DD000AA434D69AD012A434260C4614968016468
:101DE000036230BD002C0140004401400048014026
:101DF00030B5036A046A6408640004628469F025EB
:101E0000AC43120122430A24A3430B4382610362C1
:101E100030BD000070B5046A64086400046284691F
:101E2000056A0B4EB04202D00A4EB04202D1A4085D
:101E3000A40000E001221443F02294431A07120E7A
:101E40000A2322439D43194029438261016270BDE8
:101E5000002C01400004004030B5036A1024A34365
:101E600003628469036A0F252D031203AC432243E6
:101E7000A024A343090119438261016230BD70B5FA
:101E8000046A1025AC4304628569046A032636029D
:101E9000B54312022A430F252D031B071B0CAA432F
:101EA0001343A0220901944311402143836101623D
:101EB00070BDF8B5040C8BB2264682B25E430D0CA1
:101EC0001046370C584336048019002179411646D4
:101ED0006E43370C36048019794126466E438919C2
:101EE000F8BD00008307FF22DB0E9A408907090E28
:101EF0009940002808DB830809489B001B181868D4
:101F000090430843186070470007000F08388308A3
:101F100004489B001B18D86990430843D861704758
:101F200000E400E000ED00E008B5FEF745FDFFF736
:101F3000B3FD1A484269012189050A434261426999
:101F40000A400092426949110A43426142690A40CB
:101F50000092426949000A4342614069084000908A
:101F6000FFF76AFCFFF7B0FCFFF72AFD0C48FFF70C
:101F7000FBF800210A48FFF743FA1925094C6D01C7
:101F80002846FFF773FD2046FEF724FCC820FFF724
:101F90006DFD2046FEF71EFCF2E700000010024037
:101FA000C4000020881300000000000000000000B2
:101FB0000102030406070809D81F000800000020DA
:101FC0003C000000F4000008142000083C00002041
:101FD0003407000010010008333373400000000094
:101FE0009A99993F000000000000000000000000E6
:101FF00000000000CDCC4C3E0000000000000000BE
:1020000000000000010000000400000000000000CB
:0420100000127A0040
:04000005080000B13E
:00000001FF
