:020000040800F2
:10000000D80700205501000875260008FD230008C8
:1000100000000000000000000000000000000000E0
:100020000000000000000000000000007926000829
:10003000000000000000000077260008B12600083C
:100040006701000800000000670100086701000860
:1000500067010008670100086701000867010008E0
:100060000000000067010008670100086701000840
:100070006701000867010008670100080000000030
:100080007527000800000000000000001927000884
:100090000000000067010008670100086701000810
:1000A0000000000067010008000000006701000870
:1000B00000F002F800F03EF80CA030C80838241810
:1000C0002D18671EA246AB4654465D46AC4201D190
:1000D00000F030F87E460F3EB6460FCC0126334284
:1000E00000D0FB1A3343A246AB4618472833000022
:1000F00048330000103A02D378C878C1FAD85207C2
:1001000001D330C830C101D504680C6070470000CD
:100110000023002400250026103A01D378C1FBD823
:10012000520700D330C100D50B6070471FB51FBD0B
:1001300010B510BD00F00EFE1146FFF7F7FF02F0FC
:1001400061FD00F026FE03B4FFF7F2FF03BC00F0F0
:1001500085FE00000748804707480047FEE7FEE7A6
:10016000FEE7FEE7FEE7FEE704480549054A064BC1
:100170007047000015270008B1000008D8010020D2
:10018000D8070020D8030020D803002001E004C0D5
:10019000091F0429FBD28B0701D50280801CC907E7
:1001A00000D00270704700290BD0C30702D0027044
:1001B000401C491E022904D3830702D50280801CFB
:1001C000891EE3E70022EEE70022DFE77047704771
:1001D000704700000246C80FC00781434B0030B58E
:1001E0004B405B009B0D20D01923DB06C91801236F
:1001F0001B05994220DB0324A40704251346AB40CA
:100200000BD3002B04D1EB0613409B00E34204D434
:1002100001246407002312195941FF231B05994249
:100220000BD2C9000143500F09E0CB0204D50143B2
:100230000803024305D0054830BDFF21C905084326
:1002400030BD084607210905884330BD0000C07F46
:10025000F0B50C46871A9C410D46861A9D4103D283
:10026000C01BA141D21963410D0D1F0DC94EEC1BDE
:10027000AE435CD07F057F0D0026002F51D02D05A9
:10028000AC46A943DD020123ED0A1B051D432023D3
:100290001B1B24D41746E740381871412F46E7400E
:1002A000CC199D402818314661410C0D27D161447D
:1002B0009A4013D50023401C594152000ED14008EA
:1002C000400001224B005205D34207D305204007CE
:1002D000C14201D5B04900E0B0493046F0BD6B00E5
:1002E000002A00D001229A181F23203C1B1B01D595
:1002F000002302E0E540281871410C0DD7D00124FD
:1003000024050919C407CD0740084908E40F28430C
:100310006144002CD5D00024401C61419A40D0D1CA
:10032000CDE76A05520DD9D1C90FC907D5E79C4D54
:100330004E00002801D0012400E0002434195F00A1
:10034000002A01D0012600E00026BE19954FAC42DC
:100350000CD8AE420AD8B44206D001256D05EC4255
:10036000BCD010461946F0BD9942FCD00020394659
:10037000F0BDF0B51FB40C460F46811A9F412546CB
:10038000861A9D4106D20125ED076F40401ABC41F7
:1003900052187B41210D1E0D8D1BAC467D4D8D43AA
:1003A0007ED075056D0D7CD00D05AE46AC431B03AC
:1003B0001B0B794D52429D41202366469B1B14D353
:1003C0001746F740381800260090744160462F46C3
:1003D0000741E41900989D402818664116D47146DB
:1003E00071189A4025D5012320E093182A466A41C6
:1003F0005200002B00D0521C1E23203E9B1B002BC2
:1004000061DD3541EE1728186641E8D500187641C0
:100410005B1C9A4000D3401C4B05F3181524E340A5
:1004200010D3002B52D071467118D30FC01802D3CD
:10043000491C05B0F0BD0123DB079A42F9D1400801
:100440004000F6E701225205B21801D1002853D02E
:100450000123CC0ADB029943891E002A08D1020C31
:1004600003D0020C0004103902E0024600202039BB
:100470000023550B05D112020823550B01D152015F
:100480000D23550C01D112011B1DD50C01D1920079
:100490009B1C150D01D152005B1C2025EE1A01E0BA
:1004A0002CE022E00546F54015439840CA1AE107C2
:1004B00069181305C918002ABBDA03204007081879
:1004C000C10FC9070FE071466118B2E7F107400894
:1004D0000843711071444A000CD001235B059A4215
:1004E000A7D2C90FC9070020A3E74905490D26D1A6
:1004F000002001E00028F4D100219AE7284D660091
:10050000002801D0012100E0002171185F00002ABD
:1005100001D0012600E00026BE19224FA94210D8C2
:10052000AE420ED8B14208D001256D05E94206D091
:100530001946A802414010467BE79C4201D0214663
:1005400077E70020394674E710B50C465C4005D5C6
:100550000124E4076340FFF70CFF10BDFFF778FEAE
:1005600010BD30B40C465C4004D50124E407634060
:1005700030BC6DE630BCFCE670B50124E407614098
:100580000D465D4002D4FFF763FE70BD6340FFF788
:10059000F0FE70BDFF0700000000F0FF0000F07FDC
:1005A0000000E0FF0000F87FF0B5F94D0C091E09CE
:1005B0002C402E402F468BB0A7437DD0B543FCD0B6
:1005C000002E7AD0002CFCD00D465D40ED0F254367
:1005D000AC1BFF25AD0464190894C502440DC90283
:1005E0002143500DDC0204430120C00701430443B2
:1005F000D2020191200C110C00958C460104234677
:100600008B430A9161460904E24D8A430991010A2C
:100610007D4449198039097805464D4301266D18F6
:10062000F605751B6943C90C640B891C4C4364189F
:10063000B5012C1B250C2E04B4434C434D43210C17
:10064000691889090591009DE90701D00121C907B1
:1006500004912C4601996708CD072F434C08059D4E
:10066000E10B4D432D0C29466646754302950D4618
:1006700045432E46029D7D1BB44100950D465D43CA
:1006800001942C0C2F040D465543AE462D0C3D43D2
:10069000029503947546049C2D04641B049406D2B1
:1006A000029C039D641C002675410395029401ACD5
:1006B00070CC009F7D1B01E03EE162E1B441090482
:1006C0000095079101940599A4086143090C0C4613
:1006D0004443650BE7040C4666467443A646640B28
:1006E0003C43039502947446049DE4042C1B04943B
:1006F00006D2029C039D641C00267541039502945A
:1007000001AC70CC009F7D1BB44101940C465C434E
:100710000095650FE7000C465443A646640F3C4322
:10072000039502947446049DE4002C1B049406D2A5
:10073000029C039D641C002675410395029401AC44
:1007400070CC009F7D1BB441AE09AF06049DC9006B
:10075000AD092F43049DA406AD060495079D3443BF
:1007600069180791059DE10B4D432D0C29466646FE
:10077000754302950D4645432E46029D7D1BB441AF
:1007800000950D465D4301942C0C2F040D465543F6
:10079000AE462D0C3D43029503947546049C2D04F2
:1007A000641B049406D2029C039D641C00267541C0
:1007B0000395029401AC70CC009F7D1BB441019461
:1007C0008C050694079C890A611800950791019C85
:1007D0000599A4086143090C0D464543680BEF04D5
:1007E0000D46644665436C0B3C43049FED047D1B42
:1007F000AC4602D20025641C6841009E019D371B57
:1008000085410846584301950C46460FC5005443A0
:10081000600F28436546E4002C1B02D20025401CD3
:100820006E41019D3F1AB5412846BD098006284307
:100830008446A009BF064E020699A406761807430F
:10084000079D002068410A99079019430020099BE1
:1008500000906046FF1913434041E20F64003A43A1
:10086000A4460446D71A8C41A04203D90120009027
:1008700020463A46C70F941840416246D20F2243A1
:10088000644664000494009CBE466400D71AA446E3
:10089000044602978C417746002F01D1A04204D92B
:1008A0006046401C8446029A2046C40FA64694180F
:1008B0004041049A0546D20F224364466400D31A8D
:1008C0008D417146002901D1A84202D928461A4615
:1008D000641C10430122002800D01643610200204E
:1008E000079B891904465C410223002C02DB49184E
:1008F00013466441089DCE0A2D145D194B0567050A
:10090000E10A2C050D1908993E43C9076940002BDF
:1009100008D0934006D30022761C5141002B01D110
:10092000760876001C4A002D43DB154241D0AA43CD
:100930003FD030460BB0F0BD06180D464D41174C68
:100940007642AC411AD395181C465C41134A6D425D
:10095000A24113D3012252054C00D4420AD15C00BB
:10096000D4420BD04B4002D592021143E2E749003A
:100970004908DFE75940C90FC90718E000200849B6
:10098000D8E7054801420DD10342F7D0F2E7000055
:100990000000FF07302D00000000F07F0000E0FFA6
:1009A0000000F87F114859400143C0124140002027
:1009B000C0E70123089A9B069A4205DC03225207EE
:1009C0008918C90FC907B5E7052252078918074AD0
:1009D0001143D2125140ADE770B515461C46024690
:1009E0000B4628462146FFF7DFFD70BDFFFFFF7F66
:1009F0000121C9050123411842001B06D3185B0ED3
:100A00000AD0C1100722D206891840075242D142AB
:100A100001D5520089187047090208D50146002AFD
:100A200003D0C10FC907002070471046704742022B
:100A300002D0002002497047072109050143F4E76D
:100A40000000F87FF0B5FF252D04C609C209FF2775
:100A500004462E400137CB093E4348402A402B40F4
:100A60000746002A6BD0002B69D0AA4267D0AB4260
:100A700065D0002800DA32460125ED0529432C43D4
:100A800009022002090AD21A4B0C7F24E31A434CB4
:100A9000000A7C44E35C7D242404121914145B00D6
:100AA000A218884201D3521C00E0400049420C4683
:100AB0005C4324115C43DB016415E318040A5C43C6
:100AC000C502200D0C4644436419250A5D432303E7
:100AD000EC0C0D46654300030019EB184C42A34291
:100AE00001D35B18401CD4052018002B07D05B00F5
:100AF000C91804D3401C002901D1400840003F21FF
:100B000089048A4209D3002A08DC1106090F04D09F
:100B1000032149074018C00FC007F0BD0122410062
:100B2000120689187F2252069142F6D20521490702
:100B3000C84201D59010F0BDFF20C005F0BD002FC8
:100B400000DA32461648AA4207D2AB4205D2190251
:100B5000090E17D0F80FC007F0BDFF2563002D0662
:100B6000AB42F9D84900A942F6D8AB4201D1A9421B
:100B7000F2D0A94201D1002101E061004908D0056D
:100B80000843F0BD1102090EFBD0FF200243D0053F
:100B9000F0BD0A460146104654E700002E29000029
:100BA0000000C07F10B501469E240002CA15A307AD
:100BB000002A02D01843002A04DBA21A002A0CDD06
:100BC000D04010BD1206120E01D140004008A21AFA
:100BD00003D4D04040420028F3DDFF224800120633
:100BE000904201D9002010BDC817C043584010BD25
:100BF0001F22030C02D10F2200041CD0030E01D1CE
:100C00000002083A030F01D10001121F830F01D126
:100C10008000921E002801DB4000521ED2055118B0
:100C2000021251181922904004D3491C002801D106
:100C30004908490008467047C10FC90700D0404223
:100C4000012292071143D3E701218907D0E7000071
:100C5000F8B5264C4E00069DA6420AD8A64201D100
:100C6000002806D15E00A64203D8A6420AD1002A77
:100C700008D00D242404254233D02946002000F05A
:100C800090F8F8BD0C461C4311D4994207D0C81AFD
:100C900002D3EFF30080F8BDEFF30080F8BD801AB7
:100CA00002D3EFF30080F8BDEFF30080F8BD092414
:100CB0002407E5008B4207D0581A02D3EFF30080D7
:100CC00006E0EFF3008007E0101A03D3EFF3008093
:100CD000A04303E0EFF30080A043284380F30088A3
:100CE000F8BD009500F074F8F8BD00000000E0FFCA
:100CF00010B5FF231B0644009C421DD84C009C42AB
:100D00001AD80346124A0B4307D4401A02D3EFF312
:100D1000008010BDEFF3008010BD081A03D3EFF37D
:100D20000080904305E0EFF3008001219043C90764
:100D3000084380F3008810BD0D231B041A4204D021
:100D40001146002000F02DF810BD00F04BF810BD4A
:100D500000000090754600F04DF8AE46050069466B
:100D60005346C008C000854618B020B5FFF7FCF90F
:100D700060BCB64600260027C0C5C0C5C0C5C0C5FA
:100D8000C0C5C0C5C0C5C0C5403D490849008D4665
:100D9000704710B50446C046C0462046FFF7D3F959
:100DA00010BDC80212D54803400F002804D0C80364
:100DB000C043012188407047EFF300800001000923
:100DC00003210907084380F300887047002070471B
:100DD00010B500200249029A00F010F810BD000082
:100DE0000000F87F10B5024800F008F810BD0000C0
:100DF0000000C07F004870473800002010B50C4646
:100E00001107090F092904D00A290AD008290CD191
:100E100004E011460820FFF7C4FF06E0510606D59E
:100E200001E0510601D50120C007214610BDD106C1
:100E300007D501010909CC084907000E0006044343
:100E400009E0410F20024907000A0143200E000675
:100E50001D22D14101430846E7E70000014918205F
:100E6000ABBEFEE72600020070470000F0B581B07F
:100E70000446002700970068816803220A40012A7F
:100E800005D10168C9070FD1C16809043CD4816844
:100E9000204A11420AD0A06B10210143A163E06BEC
:100EA00001252843E06332E03D4630E081680125BA
:100EB000294381608B4800688B4901F08DFF0090C9
:100EC0000098002802D00098401EF8E700F04EFB82
:100ED000064620680068C00705D03D4617E0206838
:100EE0000068C00712D100F041FB801B0328F6D335
:100EF00020680068C007F2D1A06B10210143A163F4
:100F0000E06B2843E06302E03D4600E03D462846B2
:100F100001B0F0BD17000080EFF3108072B6FEE75D
:100F2000F0B581B004460846FFF786FE0146A06989
:100F300002F0A0F9FFF736FEFFF77EFE06462069B5
:100F400000902661E068314602F0A2F80746244D81
:100F5000294602F047F8002800D13D46214F284697
:100F6000394602F057F8002800D12F46E760606844
:100F7000394602F027F93F21090602F023F9054618
:100F80002068314602F01EF9294602F081F8054634
:100F9000A068314602F016F9294602F079F8009966
:100FA00002F068F9FFF7FEFDFFF746FE0146E6692D
:100FB000304602F007F905467F20C005314602F0B1
:100FC00059F9216A02F0FEF8294602F061F8FFF7AC
:100FD000E9FD0546FFF730FE2062284601B0F0BD6E
:100FE0000000C8410000A0C1F0B583B00246002354
:100FF00002933420105C012802D1022003B0F0BD1E
:10100000019316463436012030701768BB685B07C1
:1010100016D400960D684B6801242046A8402F4E38
:10102000B34215D1B96A8143B9622846A04310285A
:10103000019F3846009E08D1102D1BD02C481AE085
:10104000916B20230B439363019F377003B0F0BD76
:10105000BB6A0343BB62D06A421E072A2DD22846D0
:10106000A0431028019F3846009EEED1102D08D0D5
:10107000A00507E01D481A490A6802400A60384680
:10108000E3E7E00516490A6802430A60102D384676
:10109000DBD114480068144901F09EFE0A21414347
:1010A0000291029800283846CFD00298401E029044
:1010B00002980028F9D13846C7E722079042CED0DF
:1010C0007A690720024089689142C8D07A698243D0
:1010D0007A610140786908437861C0E70110000037
:1010E000082701400000002040420F00FFFF7FFF63
:1010F000FFFFBFFF806B70470068006C7047000007
:10110000F0B581B0002865D0044606462436054671
:101110003835806B002805D100203074E06320460C
:1011200000F098F82868C0064DD420688168490707
:1011300049D4812149002A688A43911C2960826828
:1011400003210A40012A05D10268D2070ED1C268E4
:1011500012040BD4C26818239A43A3681343C360D4
:10116000890702698A43616811430161C168374A8E
:101170000A40C260A16A491E4A1E914109030091BA
:10118000227E9203637EDB031343A27E57031F4339
:10119000E36821693B43009F3B43891E4F424F4117
:1011A000BF001F43317849003943E37E012B17D13B
:1011B000002A12D0A26B20231343A363E26B012306
:1011C0001343E3630CE028681021014301202960E8
:1011D00001B0F0BD012001B0F0BD012212041143A5
:1011E000E269FF23C2339A4202D00A43216A1143C3
:1011F000C2680A43C260E26A531E072B20D24369C9
:101200000726B34343613240436913434361C068D7
:101210000F4A02408A4207D10020E063A26B0121FD
:10122000114302229143D2E7A06B10210143022017
:101230008143A163E16B012001433C342546C6E7AD
:1012400001231B079A42DAD0E1E7C0461902FEFFEC
:10125000E7FF3F8310B586B000210591049103910B
:10126000029101910068114A904201D006B010BD70
:10127000012042020E4B5C6814435C605C681440C1
:101280000094009A40041A6802431A601A680240E7
:101290000092039103200290702001900920C00663
:1012A000009901A900F09CF806B010BD002401408F
:1012B00014100240F0B581B00D460446406908287C
:1012C00001D1082704E02068C068C00733D10C278B
:1012D00000F04CF9064603E020680068384234D03C
:1012E00021680868384209D1681CF9D0002DF3D074
:1012F00000F03CF9801BA842F2D9EDE70120420240
:10130000A36B1343A363CA681205920F2ED1A27E6A
:10131000002A2BD10A68120728D58A6852071ED4E2
:1013200048680C2290434860FF200230A26B824341
:10133000501CA0631AE0342000212154A06B20210E
:101340000143A163012001B0F0BD342000212154EC
:10135000A06B04210143A163032001B0F0BDA26B87
:1013600020231343A363E26B0243E263227E002047
:10137000002A01D001B0F0BD0C220A6001B0F0BD1E
:1013800070B50446006881680220490713D43421EF
:10139000615C01290FD02546343501262E70607E10
:1013A000012803D10020002805D105E02046FFF7E1
:1013B0005DFD002800D070BDA16B084A0A403102D3
:1013C0005118A1630021E16322681C231360297076
:1013D000916804230B43936070BDC046FEF0FFFF8D
:1013E000F0B58AB003900C68002C00D1B2E05A48E6
:1013F000039A824201D0052000E0032000900120E2
:1014000000252E460290024604910DE020430499E7
:10141000069ED0600C682046089AD040AD1C361D50
:10142000521C002800D195E00892501E029F0790A0
:1014300087403C40EED0069648680322034613409E
:101440005E1E012E059214D81646AE400194039CF0
:10145000A268B2430499CE68AE401643A660C006A7
:10146000C00F079988406268BA4302436260059AD8
:10147000019C032B0499039F1AD01046A840FA68D8
:1014800082438868A8401043059AF860022B0FD168
:101490001C20069A10400F268640079AD208920018
:1014A000BA18136AB3430E6986401E431662059A42
:1014B0001046A8403B688343486816468203304084
:1014C000A84018433860900F069EA3D05049086882
:1014D0000123184308600868184009900C21314026
:1014E0000F208840079F059A9743099A1C4ABE58C7
:1014F0008643BF180920C006039A824208D01948C3
:10150000824206D018488242009B02D1022300E0AA
:1015100000238B4033433B60104A106804994E68A7
:10152000F10301D5204300E0A04310605068B103EF
:1015300001D5204300E0A04350609068F10201D53E
:10154000204300E0A0439060D068B10200D55DE781
:10155000A0435CE70AB0F0BD000C00480004014065
:1015600008000140000400480008004805480068E1
:101570007047C0461A48007802490A681018086087
:101580007047C046C801002080B568480168102235
:101590000A430260032000F005F800F025F800205F
:1015A00080BDC046B0B504467D20C0000C49097816
:1015B00001F012FC01466048006801F00DFC00F0EB
:1015C000DBFA0125032C09D8002807D10025E843C0
:1015D00021462A4600F022F8024804602846B0BDA1
:1015E000300000203400002082B009480168012248
:1015F000114301600168114001910199110742688E
:101600000A434260406808400090009802B070476A
:101610001810024080B501F0C9FA80BD80B501F014
:10162000D1FA80BDF0B581B000284ED004463F4BC2
:101630001A68012002408A4208D21A680126B24381
:101640000A431A601A6832408A426BD100912168BD
:101650008A070ED54A0705D507221202444D2B688A
:1016600013432B60424D2A68F0239A43A368134327
:101670002B60C9072BD12D4A1068012630400099F4
:10168000884207D91068B0430843106010683040A2
:10169000884247D12078400707D507200002344A06
:1016A00011688143E0680843106000F047F8304952
:1016B00009680906090F1F4A515CC8401E490860A5
:1016C0000320FFF76FFF00262CE001262AE0616867
:1016D000274A121F012904D112689203064621D518
:1016E00009E01268022903D1920106461AD502E0E8
:1016F0009207064616D51E4A10680326B0430843D3
:101700001060FFF733FF0746094D194800680C21A8
:101710000140606880008142ADD0FFF727FFC01B09
:10172000A842F2D9304601B0F0BDC04600200240C8
:1017300088130000043400080000002010B50C4994
:101740000A680C2313400B48082B10D193021B0F7F
:1017500009A4E45C896AD20301D40F4805E00F2292
:10176000114009A2515C01F037FB4443204610BDF3
:101770000410024000127A0002030405060708095B
:101780000A0B0C0D0E0F10100102030405060708CA
:10179000090A0B0C0D0E0F1000093D00F0B587B0C3
:1017A00007460120002F00D1DEE104903878C00701
:1017B000EE4E059711D071680C200140042906D027
:1017C00071680140082937D17068C00334D530688A
:1017D000800302D57868002838D0387880074FD544
:1017E00070680007800F1BD070680C210140082929
:1017F00002D17068C00313D53068059CE1680029E8
:1018000027D0012108433060FFF7B0FE054630685D
:1018100080072ED4FFF7AAFE401B0228F7D974E1F7
:1018200030688007059A02D5D06801280ED130684B
:10183000F8218843116920E07F68002F00D1AEE0D5
:10184000012F00D0B2E001200104B8E0049807B0F5
:10185000F0BD012188433060FFF788FE05463068FF
:1018600080070DD5FFF782FE411B03200229F6D920
:101870007AE13068F82188432169C9000143316069
:10188000059C2078000720D42078400730D42078A9
:10189000C00600D49EE0059A5169012970D1706B91
:1018A000042101437163706B012101437163FFF7F0
:1018B0005DFE0546706B800700D583E0FFF756FE9E
:1018C000411B03200229F5D94EE1706AE169002924
:1018D00018D0012108437062FFF748FE0546706A80
:1018E0008007D1D4FFF742FE401B0228F7D90CE154
:1018F00001221107F069C0000191039211D5002067
:10190000029016E0012188437062FFF72FFE054622
:10191000706A8007B8D5FFF729FE401B0228F7D967
:10192000F3E0F0690843F061F0690840069006981A
:1019300002928F4F3868C00510D505988468002C36
:1019400029D0012C039A06D0306A052C00D09CE0E7
:10195000042108433062306A10439BE0039804027C
:10196000386820433860FFF701FE0546386820429A
:10197000E3D1FFF7FBFD411B03206429F6D9F3E017
:10198000706B491D6DD1042188437063706BF82121
:10199000884391691BE0306A0399884376E001200F
:1019A000010432688A43326081049AE03068012180
:1019B000052F00D091E08A0410433060090430689C
:1019C000084390E0706BF821884305998969C90044
:1019D000014371630598046A002C1ED070680C21C5
:1019E000014008291CD1012C049800D1BCE0012041
:1019F000030471680B40F26A059D6C6AA34200D033
:101A0000B2E00F231A40EC6AA24200D0ACE09A0484
:101A10001140AA6A914200D0A6E0002007B0F0BDB4
:101A20000120020631680492914331604706FFF7B6
:101A30009DFD0546022C0AD1049C3068384273D0C3
:101A4000FFF794FD411B03200229F6D98CE0306892
:101A50003842E2D0FFF78AFD411B03200229F6D964
:101A600082E0042108437063706B01218843706336
:101A7000FFF77CFD0546706B8007ABD5FFF776FD61
:101A8000411B03200229F6D96EE090433062306A90
:101A9000042188433062374FFFF768FD0546002C6C
:101AA0000ED0306A80070ED4FFF760FD401BB842AD
:101AB000F7D92AE0FFF75AFD411B0320B94253D85A
:101AC000306A8007F6D402980028059C00D1DEE633
:101AD000F06901998843F061D9E60A0490433060C7
:101AE0008904306888433060FFF740FD05460120D7
:101AF0004404002F0CD0059F3068204200D06CE6D3
:101B0000FFF734FD401B6428F6D9032007B0F0BD71
:101B1000059F3068204200D15FE6FFF727FD411B9B
:101B200003206429F5D91FE0F06A0F218843059A44
:101B3000D16A0143F1623D20000471688143906ADB
:101B40000843516A01437160306820433060FFF7F9
:101B50000DFD04463068384200D05EE7FFF706FD11
:101B6000011B03200229F5D907B0F0BD0010024087
:101B7000007000408813000080B500F085FD80BD36
:101B80007047704770B53C22825C012A01D1022067
:101B900070BD03463C3300221A703F231B02CC6801
:101BA0009C430F239D028E68AE432643DB024C68A4
:101BB0009C43344307231B030D689D4325430323A4
:101BC0005B030C699C432C434B6923430124A4030E
:101BD000A343C969194300684164104670BD000001
:101BE000B0B53C22825C012A01D10220B0BD024680
:101BF0003C3202235370012313700068446870253F
:101C0000AC430D682543846845606D4DA84202D001
:101C10006C4DA84204D18025AC43496821438160C2
:101C2000002010705370B0BDB0B500281DD0044620
:101C300005463C356878002804D1002028702046ED
:101C400000F016F80220687001CC214600F0D0FDAB
:101C50000120A872A870E87028716871A871E871F5
:101C60002872687268700020B0BD0120B0BD00000D
:101C7000B0B586B0002405940494039402940194B2
:101C800000685049884212D02749884236D04C49D2
:101C9000884246D10120C0022449091F0A68024334
:101CA0000A60096801400091009806B0B0BD0221A9
:101CB00002911E4802680A43026002680A400092CC
:101CC0000099012105918904083802680A430260DD
:101CD0000068084000900494039410250195009832
:101CE000134801A9FFF77CFB284621462246FFF74F
:101CF00095FC2846FFF78EFC06B0B0BD012000021F
:101D00000A490A6802430A60096801400091009884
:101D10001324002120460A46FFF780FC2046FFF7E7
:101D200079FC06B0B0BDC046002000401C10024047
:101D3000000400483D21415C012915D101463D3197
:101D400002220A700168D248814202D0D148814201
:101D50000CD18868072202400020062A0BD00A68AE
:101D6000012313430B60704701207047086801226C
:101D700002430A60002070473D21415C012918D1CF
:101D800001463D3102220A700168C86801221043F1
:101D9000C860BF48814202D0BE4881420BD18868EA
:101DA000072303400020062B09D00B6813430B6068
:101DB0007047012070470868104308600020704792
:101DC000002C014000040040F0B581B004463C20E6
:101DD000205C012801D1022360E026463C36022027
:101DE000707001273770206882682F4B1340836022
:101DF0000A6800254F2A0EDC1F2A25DD202A27D05D
:101E0000302A25D0402A4CD1CA68496800F034FEF7
:101E1000206840213DE06F2A1CDD7B039A4224D0DC
:101E20003B039A422B4637D0702A3AD14A68009237
:101E30008A68CB681146009A00F02DFD2068816801
:101E400077220A43826026E0002A01D0102A28D196
:101E500011461EE0502A16D0602A22D1CA6849686D
:101E600000F03EFE2068602113E04A6800928A6814
:101E7000CB681146009A00F00EFDB80321688A680D
:101E800002438A6007E0CA68496800F0F5FD2068EF
:101E9000502100F00BFD2B4635707770184601B0CD
:101EA000F0BD3B46F8E7C0468800FFFF70470000E2
:101EB00070B505463C20285C012801D1022070BD88
:101EC0000C462E463C36012030700221CA41032ABE
:101ED00044D8C0467A44127952009744010F1F2C0F
:101EE000E36806CC2868083C00F0D8FD28688169C2
:101EF0000C2291438161A16818302BE0E36806CC85
:101F00002868083C00F000FE0320810228688269EE
:101F10008A438261A168090218301BE0E36806CC9D
:101F20002868083C00F00AFE2868C1690C22914329
:101F3000C161A1680DE0E36806CC2868083C00F0A8
:101F400017FE032081022868C2698A43C261A16822
:101F500009021C3002680A4302600020002131702F
:101F600070BDB0B500281DD0044605463C356878E4
:101F7000002804D100202870204600F015F8022027
:101F8000687001CC214600F033FC0120A872A870D3
:101F9000E87028716871A871E871287268726870B9
:101FA0000020B0BD0120B0BD7047000070B50446F0
:101FB0003E300029024608D0082903D0042903D165
:101FC000421C02E0821C00E0C21C1278002905D0ED
:101FD000082905D0042905D1431D04E0031D02E0B2
:101FE000831D00E0C31D1B780125012A41D1012B6F
:101FF0003FD10222002905D0082905D0042905D1A6
:10200000427004E0027002E0827000E0C2700222BE
:10201000002905D0082905D0042905D1427104E022
:10202000027102E0827100E0C27102220846D041D2
:1020300003280AD8800012A210582268D3680343EC
:10204000D3600025002D14D102E00125002D10D110
:1020500020680126324600F011FC2068E5498842DC
:1020600002D0E349884206D1816807220A40062A45
:1020700001D1284670BD016831430160284670BD1A
:102080000200000004000000080000001000000032
:10209000002C014000040040B0B504468020C54338
:1020A00020680169890716D5C168890713D52946B3
:1020B0007E310161012121778069800703D02046AC
:1020C000FFF7F4FE05E0204600F0B2F8204600F0ED
:1020D00036F90020207720680169490717D5C168C3
:1020E000490714D529467C31016102212177806995
:1020F0008005800F03D02046FFF7D8FE05E020467C
:1021000000F096F8204600F01AF9002020772068A9
:102110000169090716D5C168090713D52946783121
:10212000016104212177C069800703D02046FFF7B1
:10213000BDFE05E0204600F07BF8204600F0FFF8E9
:102140000020207720680169C90617D5C168C90633
:1021500014D529467031016108212177C0698005B5
:10216000800F03D02046FFF7A1FE05E0204600F0D7
:102170005FF8204600F0E3F800202077206801692E
:10218000C90708D0C168C90705D029467F31016158
:10219000204600F031F920680169090606D5C168BA
:1021A000090603D505612046FFF7EAFC20680169AE
:1021B000490608D5C168490605D52946403101615F
:1021C000204600F01AF920680169890607D5C16820
:1021D000890604D5603505612046FFF7D2FCB0BD05
:1021E00080B586B00021059104910391029101917F
:1021F0000068FB4A904201D006B080BDAF4802683B
:10220000012304935B041A430260006818400090A5
:102210000220059003910290032000020190092002
:10222000C006009901A9FFF7DBF806B080BDC046E3
:102230007047000070B505463C20285C012801D19C
:10224000022070BD0C462E463C3601203070022123
:10225000CA41032A4CD8C0467A44127952009744A6
:10226000011123322868214600F028FB2868816983
:1022700008220A43826181690422914381612169B4
:10228000183031E02868214600F052FB0121CA02D3
:102290002868836913438361890282698A43826162
:1022A0002169090218301FE02868214600F078FBF8
:1022B0002868C16908220A43C261C16904229143A6
:1022C000C16121690FE02868214600F0A7FB0121C8
:1022D000CA022868C3691343C3618902C2698A4379
:1022E000C261216909021C3002680A4302600020B1
:1022F0000021317070BDB0B500281DD004460546E0
:102300003C356878002804D100202870204600F071
:1023100015F80220687001CC214600F069FA01200E
:10232000A872A870E87028716871A871E8712872A5
:10233000687268700020B0BD0120B0BD7047704762
:10234000B0B504463E300029024608D0082903D023
:10235000042903D1421C02E0821C00E0C21C127856
:10236000012A08D10222002907D0082907D0042910
:1023700007D1427006E00120B0BD027002E0827019
:1023800000E0C270206801252A4600F077FA216833
:102390001448814206DCB648814213D090488142FD
:1023A00006D019E01048814202D01048814213D172
:1023B000E8034A6C02434A648948814202D0AC482F
:1023C000814209D18868072202400020062A07D0EE
:1023D0000A682A430A60B0BD0868284308600020E4
:1023E000B0BDC046FF4301400048014000440140E9
:1023F00000040040002C014070477047FEE70000D9
:10240000B0B584B024221C48002181540124846288
:1024100001620425194AFF23C233026041608160D2
:1024200002460C3232C28161C36103910291019173
:10243000FEF766FE00281CD10195200703902003BB
:1024400002900D4801A9FEF7CFFD002811D105200B
:102450000190094801A9FEF7C7FD002809D106200F
:102460000190054801A9FEF7BFFD002801D104B085
:10247000B0BDFEF751FDC046A00000200024014081
:1024800083B001218A050D48036813430360036884
:1024900013400293029A4A040368134303600368DB
:1024A00013400193019A890402680A43026000689C
:1024B00008400090009803B07047C04614100240D6
:1024C00010B5A74800218161074A2F23EA4C046018
:1024D00043608160C2600161FFF7A6FB002800D164
:1024E00010BDFEF719FDC04610270000B0B596B02C
:1024F00000241594149413941294119410940F942E
:102500000E940D940C940B940A94099432488021F3
:10251000324A2F23D54D056043608460C260046158
:10252000446181610894079406940594049403948B
:1025300002940194FFF778FB00284AD10125280373
:102540001290254812A9FFF73FFC002841D12248EC
:10255000FFF7D1FE00283CD1119410941E4810A919
:10256000FFF73EFB002834D10A94602009900B94B9
:102570000C940D940E940F94174809A92246FFF766
:1025800059FE002825D1144809A90422FFF752FE5C
:1025900000281ED105940494039402940194089495
:1025A000680306900C4801A9FFF7ECFA002810D147
:1025B000094C2046FFF7BEFB00212046FFF7C0FE76
:1025C00004212046FFF7BCFE2046FFF709FE16B0A7
:1025D000B0BDFEF7A1FCC046E4000020E703000008
:1025E000002C0140B0B58AB07A4880218161002476
:1025F0001E492F229E4B036042608460C1600461CB
:1026000009940894079406940594049403940294FE
:1026100001940094FFF708FB002824D1012528032A
:1026200006906C4806A9FFF7CFFB00281BD169482C
:10263000FFF797FC002816D10594202004906548E8
:1026400004A9FFF7CDFA00280DD1039408200290C9
:10265000019500945F4869462246FFF729FC00284F
:1026600001D10AB0B0BDFEF757FCC0464FC3000011
:1026700000040040FEE770477047000080B5FEF799
:10268000E3FA3849886180BDB0B5401E010E01D023
:102690000120B0BD054D68600024E043032100F037
:1026A00091FAAC60072028602046B0BD10E000E041
:1026B00080B5FEF75FFF80BD70B590B004AC3021EF
:1026C0002046FDF781FD00250F95012001050E91A3
:1026D00001040D9102260C9610210A910990059093
:1026E0001120049003950295019500952046FFF76F
:1026F00055F800280CD1039502950196072000900B
:1027000068460121FEF78EFF002801D110B070BD90
:10271000FEF702FC70470000B0B51148FFF7BCFCA3
:10272000104CA069104900F04DFD05462E48016887
:102730002046FEF7F5FBFEF77FFA0146284600F03B
:10274000A7FCFEF72FFA7D21C900884200DB08466E
:10275000C117884305494860054800680860B0BD56
:102760002C0100200800002000002041342C0140F2
:10277000E0000020B0B5174800680169C9070DD016
:10278000C168C9070AD00121C943016112490A88F9
:10279000521C93B2142B00D100220A8001698907D0
:1027A00013D5C068800710D50B4C20880B494143D6
:1027B0000B4D286909180B4800F00EFB0A49086008
:1027C0000A4908600020208028600248FFF764FC66
:1027D000B0BDC04674010020C401002050C30000F9
:1027E000240400401CC80600980000209C00002023
:1027F00010B50468B84A904202D0B84B984204D150
:1028000070239C434B68234300E02346194CA042AD
:1028100008DD90420CD0964CA04209D0954CA042C5
:1028200006D020E0AD4CA04202D0134CA0421AD1F9
:1028300003242402A343CC681C4380239C434B699C
:10284000234303608B68C3620B688362904205D0A8
:10285000874A904202D0874A904201D109690163B8
:102860000121416110BD1C46E7E7C046002C014034
:1028700000040040FF2B01400020004010B51F2342
:102880000B4001219940046A8C4304629A40016A1A
:102890001143016210BDB0B5FF2424028568A54331
:1028A00011431A020A432A438260B0BD8268702332
:1028B0009A430A430721114381607047F0B5026AC9
:1028C00001239A430262026A02239A438D681543E8
:1028D000436882697324A2430E687F4FB84205D0D3
:1028E000634CA04202D0634CA04207D10C24A54304
:1028F000CC680427BC43784F2C4300E02C4632437D
:10290000B84205D05A4DA84202D05A4DA84207D12C
:1029100003252D02AB434D698E691D43354300E00D
:102920001D4645608261496841630462F0BDC0464E
:10293000F0B5026A10239A430262026A20239A4386
:102940008B681E011643426873231B0285699D43F1
:102950000B681B02604FB84201D0344607E0C02428
:10296000A643CC6824014027BC435B4F34432B4330
:10297000B84205D03E4DA84202D03E4DA84208D1F3
:102980000325AD02AA434D698E69AD001543B2001F
:102990002A4342608361496881630462F0BDC04696
:1029A000F0B581B001221302046A9C430462520212
:1029B000036A93438A6815021D434368C2697324FE
:1029C000A2430E68444FB84201D02C460AE00324CB
:1029D000A402A543CC68240200940F4C009F3C4005
:1029E0003D4F2C433243B84205D0214DA84202D07E
:1029F000204DA84208D103252D03AB434D698E69B4
:102A00002D011D4333012B434360C2614968C163FB
:102A1000046201B0F0BDC04600FBFFFF70B50123AA
:102A20001A03046A944304625A03046A94438A684A
:102A300012032243446873252D02C669AE430D6814
:102A40002D023543244EB04205D0094EB04202D08B
:102A5000084EB04205D19B039C434B699B01234325
:102A600000E023464360C56149680164026270BDAD
:102A70000048014000440140B0B5036A046A0125E2
:102A8000AC4304628469F025AC43120122438261A5
:102A90000A2293430B430362B0BD0000F0B5046A01
:102AA0000126B44304628569046A0B4FB84202D020
:102AB0000A4FB84203D10326B543154300E035431E
:102AC000F02295431A01D2B2AA1882610A2211405B
:102AD000944361180162F0BD002C014000040040E5
:102AE00010B5036A1024A34303620F231B038469F8
:102AF0009C4312032243036A8261A022934309018B
:102B00001943016210BD0000B0B5046A1025AC4342
:102B100004621202244C14401A0392B21219F323D5
:102B20001B0284699C431443026A84610901A02347
:102B300019409A4351180162B0BDC046B0B5012496
:102B40002402056AA5430562F024A2431B01DBB2FF
:102B50009A18C369F324A3431343026AC36105238C
:102B60005B02090219409A4351180162B0BD00008E
:102B7000B0B501242403056AA543056212020A4C7C
:102B800014401A0392B21219F3231B02C4699C4326
:102B90001443026AC46105235B03090319409A4385
:102BA00051180162B0BDC046000FFFFF002805D4D8
:102BB0001F21084001218140014801607047C04643
:102BC00000E100E0002805D40322034693430C4AA9
:102BD0009A1806E00F220240083A03239A43074B53
:102BE000D2188007C00E8901C9B28140FF238340FB
:102BF00010689843084310607047C0461CED00E021
:102C000000E400E084B0FEF7BFFCFFF755FDFFF7DE
:102C100037FCFFF7F5FBFFF769FCFFF7E3FCFFF775
:102C20004FFC554C2046FFF7A7F85448FFF7A4F88F
:102C3000002120460391FFF7B9F92320C600524F27
:102C400003E030467830634908604D480068FFF77C
:102C500015FD4C4C20680A284D4D71D10399216017
:102C6000288829800A2100F0B7F8FDF7EDFF7321CD
:102C7000C90500F0A7FA474900F0A4FA04464649FE
:102C800000F0A0FA05464548214600F0F3FA014657
:102C90002846FDF7D7FE424900F0FAF9FDF7A8FEF5
:102CA000404A414BFDF780FCFDF794FA05463F484A
:102CB00005602846FDF776FF3D4908602846FDF788
:102CC00097FE044602913B4800680190FDF790FE94
:102CD000394A3A4BFDF738FC2246029B00F077F95F
:102CE00000280398AFD1019C2046354900F0D0F967
:102CF000294600F077F90028A3D12046294600F0A4
:102D00007CF90028A1D12F480068642100F086F8E2
:102D100070431430FDF790FF044628462A4900F01E
:102D2000B7F92A49FDF78EFE294900F04BFA2146F2
:102D300000F0AEF9FDF736FF85E720680A288DD050
:102D40003846FEF71DFB0A213846FEF7B3FA38462F
:102D5000FEF7D0F93146E8310842EED03846FEF7AA
:102D6000CBF90A4908800104E7D02988081828808F
:102D70002068401C2060E0E7740100202C01002046
:102D800004000020D0010020A0000020D401002079
:102D9000CC01002085EB3140008089440000C8410F
:102DA0000000C8C268226C787AA5D83FBC01002018
:102DB000C00100202C000020333333333333D33FA2
:102DC000000020C198000020000070C200002041D7
:102DD0000000C842E000002043088B421AD30022C2
:102DE00003098B4279D3030A8B425ED3030B8B42D8
:102DF00042D3030C8B4227D30902FF2212BA030CE1
:102E00008B4202D31212090203D0030B8B4233D33D
:102E10001AE0D3E0411A8041401C704703460B433F
:102E200071D443088B42F5D3002203098B4254D35B
:102E3000030A8B4239D3030B8B421DD3030C8B4205
:102E400002D394466EE0090AC30B8B4201D3CB0335
:102E5000C01A5241830B8B4201D38B03C01A5241DB
:102E6000430B8B4201D34B03C01A5241030B8B42DD
:102E700001D30B03C01A5241C30A8B4201D3CB02C8
:102E8000C01A5241830A8B4201D38B02C01A5241AD
:102E9000430A8B4201D34B02C01A5241030A8B42B0
:102EA00001D30B02C01A5241CDD2C3098B4201D3C8
:102EB000CB01C01A524183098B4201D38B01C01A46
:102EC000524143098B4201D34B01C01A52410309BD
:102ED0008B4201D30B01C01A5241C3088B4201D36C
:102EE000CB00C01A524183088B4201D38B00C01A19
:102EF000524143088B4201D34B00C01A5241411A40
:102F0000524110007047CA0F00D04942031000D34D
:102F10004042534000229C4603098B422DD3030AB2
:102F20008B4212D38901FC2212BA030A8B420CD3C2
:102F3000890192118B4208D3890192118B4204D3EB
:102F4000890137D0921100E08909C3098B4201D36E
:102F5000CB01C01A524183098B4201D38B01C01AA5
:102F6000524143098B4201D34B01C01A524103091C
:102F70008B4201D30B01C01A5241C3088B4201D3CB
:102F8000CB00C01A524183088B4201D38B00C01A78
:102F90005241D9D243088B4201D34B00C01A52414F
:102FA000411A00D201465241104663465B1000D3DD
:102FB0004042704763465B1000D3404201B5002198
:102FC000004201D0C9430846C046C04602BD10B504
:102FD00000F02CF8EFF30080800001D4012010BD38
:102FE000002010BD10B500F099F8EFF3008040000C
:102FF000800F012800D0002010BD10B500F0B8F8F7
:10300000EFF300804000800F012801D0012010BDA7
:10301000002010BD10B500F0ABF8EFF30080800089
:1030200001D4012010BD002010BD000070B50125A5
:103030002D050C001C4310D4EC4206D4AC420AD43B
:10304000994200D070BD904270BDE94217D4EB4266
:1030500015D4994270BD894270BDEC4206D5AC4290
:10306000F9D58B4200D070BD824270BD6D004C001E
:10307000EC4204D25C00EC4201D28B4270BD034CA6
:1030800030B4FDF7E5FD30BC70BD00BF190016047B
:1030900070B50125ED0704004C4020D4441A01D23C
:1030A000001B0919C60D4B00F2B2FF2A29D01B0ED6
:1030B0002CD000020C0228432C43D31ADC40051903
:1030C00010D2280A02D3401C6D0611D0761EF605D8
:1030D0008019FF2A00DA70BDC00DC00570BD6940BF
:1030E00000F0CEF801200543C541521C761CE8E7EC
:1030F00064089C40C90161408900E7D10124A043D4
:10310000E4E71B0E440200D0034870BD002AFCD146
:10311000C00FC00770BD00BF0000C07F0123DB05EA
:1031200002000A430DD4DA4203D49A4207D48842FB
:103130007047D84214D4D94212D488427047804292
:103140007047DA4203D59A42F9D5814270475B0055
:103150004200DA4204D24A00DA4201D28142704788
:1031600010B5024AFDF7C4FD10BD00BF09001304ED
:103170000123DB0502000A430DD4DA4203D49A424C
:1031800007D488427047D84214D4D94212D4884216
:10319000704780427047DA4203D59A42F9D581429E
:1031A00070475B004200DA4204D24A00DA4201D2A0
:1031B0008142704710B5024AFDF79AFD10BD00BF6D
:1031C0000900160470B5420064414B005C41120EC8
:1031D00039D01B0E38D0FF2A3CD0FF2B3AD0D21862
:1031E0007F3A40024902400A490A4518ED010600AB
:1031F0004E43000A090A48430104731A4019190C86
:103200004318990F04D05B08012149075B1A521C2F
:10321000D80904D3401CF50301D19D0607D0FF2A2D
:1032200008D2D50506D0E4072043401970BD01251A
:10323000A843F4E7002A01DCE00770BD2402FF2068
:103240002043C00570BD1B0EFF2A03D0FF2B01D009
:10325000E00770BDFF2636064500B54206D84D0092
:10326000B54203D8D218FF2A00D0E7E7004870BD66
:103270000000C07F70B50125ED0704004C4022D44A
:10328000441A02D26C40001B0919C60D4B00F2B261
:10329000FF2A4BD01B0E50D000020C02A8432C4337
:1032A000D31ADC40051B05D5AD0019D36D08761E79
:1032B000521E37D0F605280A01D2801970BD704120
:1032C0006D0603D070BD6940FFF7E8FE9C4009021F
:1032D0006140490001D0401E70BD0124A04370BD73
:1032E0006D081DD001202B0C01D12D0410302B0EA8
:1032F00001D12D0208302B0F01D12D01001DAB0F84
:1033000001D1AD00801CEB0F01D16D00401C361ABD
:10331000121A6D00680AF5054019012A02DB70BD1A
:10332000002070BDC036300AC00770BD1B0E4402BD
:1033300001D1FF2B00D1024870BD002AF0D070BD32
:103340000000C07F80807F7E7D7C7B7A7978777675
:1033500076757473727171706F6E6E6D6C6C6B6A72
:103360006A69686867666665646463636261616010
:10337000605F5F5E5E5D5D5C5C5B5B5A5A5959588D
:1033800058575756565555555454535352525251F7
:10339000515050504F4F4F4E4E4D4D4D4C4C4C4B4D
:1033A0004B4B4A4A4A494949484848474747474694
:1033B00046464545454444444443434343424242D0
:1033C000424141418182838485868788898B8C8DA7
:1033D0008E8F919293959697999A9C9D9FA0A2A368
:1033E000A5A7A8AAACAEB0B2B3B5B7B9BCBEC0C2AF
:1033F000C5C7C9CCCED1D4D7D9DCDFE2E6E9ECF041
:10340000F3F7FAFE000000000000000001020304D0
:1034100006070809383400080000002038000000C2
:10342000F40000087034000838000020A0070000F5
:10343000100100080000000000127A005000000097
:103440000000A0420000803F0000C84200000000D1
:10345000000000000000000000000000CDCC4C3E49
:103460000000000000008C42010000000400000089
:04000005080000B13E
:00000001FF
